:020000040800F2
:100000000080012065060008E1050008E9050008F8
:10001000F1050008F90500080106000800000000CD
:1000200000000000000000000000000009060008B9
:100030001706000800000000250600083306000827
:10004000B5060008B5060008B5060008B5060008A4
:10005000B5060008B5060008B5060008B506000894
:10006000B5060008B5060008B5060008B506000884
:10007000B5060008B5060008B5060008B506000874
:10008000B5060008B5060008B50600080000000027
:10009000000000000000000000000000B50600089D
:1000A000B5060008B5060008B5060008B506000844
:1000B00049050008B5060008B5060008B5060008A1
:1000C000B5060008B5060008B5060008B506000824
:1000D000B5060008B5060008B506000800000000D7
:1000E000B5060008B5060008B506000800000000C7
:1000F000000000000000000000000000B50600083D
:1001000000000000B5060008B5060008B5060008A6
:1001100000000000000000000000000000000000DF
:10012000B5060008B5060008B5060008B5060008C3
:10013000B5060008000000000000000000000000FC
:10014000000000000000000000000000B5060008EC
:10015000B5060008B5060008B5060008B506000893
:10016000B5060008B5060008000000000000000009
:10017000000000000000000000000000000000007F
:1001800000000000B50600080000000000000000AC
:04019000B5060008A8
:1001940010B5054C237833B9044B13B10448AFF3BD
:1001A40000800123237010BD040000200000000023
:1001B4002807000808B5034B1BB103490348AFF3F4
:1001C400008008BD00000000080000202807000887
:1001D40080B483B000AF0346FB7197F90730002B5E
:1001E4000BDBFB7903F01F02074997F907305B0922
:1001F400012000FA02F241F8232000BF0C37BD466B
:100204005DF8047B704700BF00E100E080B483B078
:1002140000AF03463960FB7197F90730002B0ADB06
:100224003B68DAB20C4997F907301201D2B20B4499
:1002340083F800230AE03B68DAB20849FB7903F04B
:100244000F03043B1201D2B20B441A7600BF0C37E1
:10025400BD465DF8047B704700E100E000ED00E07E
:1002640080B500AF00F00AF800F030F800F0CEF8E6
:1002740000F00EF900F08EF800BFFDE780B400AF87
:10028400114B1B68104A43F00103136000BF0E4B6F
:100294001B6803F00203002BF9D00B4B9B680A4A3E
:1002A40023F003039360084B074A9B68936000BFE5
:1002B400054B9B6803F00C03002BF9D100BF00BF72
:1002C400BD465DF8047B70470038024080B400AF3F
:1002D4002D4B1B6B2C4A43F0010313632A4B1B6BFE
:1002E400294A43F002031363284B1B68274A1B0C5B
:1002F4001B041360254B1B68244A43F4AA4343F0B0
:1003040055031360224B1B68214A23F0FF0313603B
:100314001F4B1B681E4A43F0550313601B4B5B685D
:100324001A4A23F0FF035360194B5B68184A23F001
:100334000F035360154BDB68144A1B0C1B04D3607A
:10034400134BDB68124A23F0FF03D3600F4B9B6807
:100354000E4A1B0C1B0493600D4B9B680C4A23F044
:10036400FF039360094B5B69084A23F0FF03536161
:10037400074B5B69064A43F00F03536100BFBD4658
:100384005DF8047B704700BF003802400000024063
:100394000004024080B500AF1B4B1B6C1A4A43F0AB
:1003A400010313644FF0804300221A604FF080432E
:1003B40040F23F629A624FF080430922DA624FF0C2
:1003C400804300225A624FF0804301225A614FF069
:1003D400804300221A614FF08043DB684FF0804273
:1003E40043F00103D36001211C20FFF70FFF1C2001
:1003F400FFF7EEFE4FF080431B684FF0804243F05E
:100404000103136000BF80BD0038024080B400AF18
:100414001B4B1B78DBB21B4AA2FB0323DB08DAB2BB
:10042400194B1A70164B1B78DAB2164BA3FB021346
:10043400D9080B469B000B445B00D31ADAB2124B6B
:100444005A70124B1B78DBB20E4AA2FB0323DB0863
:10045400DAB20D4B9A700D4B1B78DAB2094BA3FB41
:100464000213D9080B469B000B445B00D31ADAB283
:10047400054BDA7000BFBD465DF8047B704700BFD2
:1004840020000020CDCCCCCC240000202100002072
:1004940080B483B000AF264B5B69254A43F00F0359
:1004A4005361244B1B78DBB21A46234B9B5CBB7114
:1004B400BB79224AD35CFB711E4B1B78DBB2012B48
:1004C40004D1FB7963F07F03FB7103E0FB7903F054
:1004D4007F03FB711A4B5B69194A23F0FF035361D5
:1004E400174B5A69FB79164913434B61114B1B781F
:1004F400DBB21A4601239340DA430D4B5B690C4986
:1005040013404B610B4B1B78DBB20133DAB2094B5E
:100514001A70084B1B78DBB2032B02D9054B00225F
:100524001A7000BF0C37BD465DF8047B704700BFEE
:100534000004024028000020240000204007000896
:100544000000024080B500AF4FF080431B6903F008
:100554000103002B39D04FF080431B694FF08042D8
:1005640023F001031361FFF793FF194B1B889BB220
:1005740001339AB2164B1A80154B1B889BB2B3F504
:100584007A7F22D3124B00221A80124B1B78DBB2E3
:100594000133DAB20F4B1A700E4B1B78DBB23B2BD4
:1005A40011D90C4B00221A700B4B1B78DBB20133B0
:1005B400DAB2094B1A70084B1B78DBB23B2B02D919
:1005C400054B00221A70FFF721FF00BF80BD00BF5A
:1005D4002A000020210000202000002080B400AF69
:1005E40000BFFDE780B400AF00BFFDE780B400AFFB
:1005F40000BFFDE780B400AF00BFFDE780B400AFEB
:1006040000BFFDE780B400AF00BFBD465DF8047BCA
:10061400704780B400AF00BFBD465DF8047B7047EF
:1006240080B400AF00BFBD465DF8047B704780B561
:1006340000AF00F03FF800BF80BD000080B400AF01
:10064400064BD3F88830054A43F47003C2F8883067
:1006540000BFBD465DF8047B704700BF00ED00E0BD
:10066400DFF834D0FFF7EAFF0C480D490D4A0023A8
:1006740002E0D458C4500433C4188C42F9D30A4A53
:100684000A4C002301E013600432A242FBD300F0C1
:1006940025F8FFF7E5FD70470080012000000020E9
:1006A400040000205407000804000020300000204B
:1006B400FEE7000080B400AF064B1B781A46064BD9
:1006C4001B681344044A136000BFBD465DF8047BF5
:1006D400704700BF000000202C00002070B50D4DB5
:1006E4000D4C641BA4100026A64209D10B4D0C4CE2
:1006F40000F018F8641BA4100026A64205D170BDB2
:1007040055F8043B98470136EEE755F8043B984703
:100714000136F2E74C0700084C0700084C070008B4
:1007240050070008F8B500BFF8BC08BC9E467047E7
:0C073400F8B500BFF8BC08BC9E4670473A
:0C0740003F065B4F666D7D077F6F000079
:04074C00B9010008E7
:040750009501000807
:0407540001000000A0
:040000050800066584
:00000001FF
